:020000040800F2
:100000000007002029020008571200088710000886
:10001000551200081704000895140008000000009D
:100020000000000000000000000000005B1200085B
:100030001904000800000000591200080D13000800
:10004000430200084302000843020008430200087C
:10005000430200084302000843020008430200086C
:10006000430200084302000843020008430200085C
:10007000430200084302000843020008430200084C
:10008000430200084302000843020008430200083C
:10009000430200084302000843020008430200082C
:1000A000430200084302000843020008430200081C
:1000B000430200084302000843020008430200080C
:1000C00043020008430200084302000843020008FC
:1000D00043020008430200084302000843020008EC
:1000E00043020008430200084302000843020008DC
:1000F00043020008430200084302000843020008CC
:1001000043020008430200084302000843020008BB
:100110004302000843020008B5130008C113000899
:10012000430200084302000843020008430200089B
:10013000430200084302000843020008430200088B
:10014000430200084302000843020008430200087B
:10015000430200084302000843020008430200086B
:10016000430200084302000843020008430200085B
:100170004302000843020008430200080000000098
:10018000430200084302000800F002F800F03CF8C7
:100190000AA090E8000C82448344AAF10107DA45E2
:1001A00001D100F031F8AFF2090EBAE80F0013F0F8
:1001B000010F18BFFB1A43F0010318477C1300001E
:1001C0009C130000103A24BF78C878C1FAD85207AF
:1001D00024BF30C830C144BF04680C6070470000C1
:1001E0000023002400250026103A28BF78C1FBD840
:1001F000520728BF30C148BF0B6070471FB501F0E0
:100200008DF91FBD10B510BD00F0CFF81146FFF7F6
:10021000F5FF01F051F900F0EDF803B4FFF7F2FF3C
:1002200003BC00F0F1F80000094880470948004786
:10023000FEE7FEE7FEE7FEE7FEE7FEE7FEE7FEE796
:10024000FEE7FEE704480549054A064B70470000F3
:10025000A513000889010008000100200007002004
:10026000000300200003002053EA020C00F0698024
:100270002DE9F04B4FF00006002B1FBFB3FA83F5BA
:1002800003FA05F424FA05F65E4012BF1643B2FAEB
:1002900082F502FA05F4C5F120051EBF22FA05FC1D
:1002A00044EA0C04203556EA044C4FEA144418BFC3
:1002B000641C4FF000084FF00009904271EB030CF2
:1002C00039D3002919BFB1FA81F701FA07F6B0FA5C
:1002D00080F700FA07F6C7F120071EBF20FA07FCD7
:1002E00046EA0C062037B6FBF4FCA7EB0507103FE7
:1002F00007F01F0BCBF120060CFA0BFB2CFA06F6CD
:1003000044BFB3460026202FA4BF5E464FF0000B2B
:100310005BEA060C08BF4FF0010B19EB0B09ABFBB6
:10032000027C48EB0608C01B06FB02CC0BFB03CC8F
:1003300071EB0C01C1E70B46024641464846BDE859
:10034000F08B13B54FF000004FF00001AFF30080C9
:10035000BDE81C4070474FF0000200B513469446BC
:100360009646203922BFA0E80C50A0E80C50B1F10D
:100370002001BFF4F7AF090728BFA0E80C5048BF21
:100380000CC05DF804EB890028BF40F8042B08BFBF
:10039000704748BF20F8022B11F0804F18BF00F8BB
:1003A000012B7047704770477047754600F028F87A
:1003B000AE4605006946534620F00700854618B052
:1003C00020B5FFF73FFFBDE820404FF000064FF09B
:1003D00000074FF000084FF0000B21F00701AC467A
:1003E000ACE8C009ACE8C009ACE8C009ACE8C00999
:1003F0008D4670470446AFF300802046FFF70DFF9F
:1004000000487047A000002001491820ABBEFEE75D
:10041000260002007047FEE7704772B6FEE7000054
:1004200070B5044600F018F90546601C02D0044877
:100430000078044400F010F9401BA042FAD370BDCC
:10044000000000202DE9F84FDFF8BCA100220125B3
:1004500003264FF00F090AF1040BAAF1040E00BFA6
:100460000B6805FA02F42340A34270D10F7907F01C
:100470000307012F01D0022F16D187684FEA4208E7
:1004800006FA08FC27EA0C07D1F80CC00CFA08FCA5
:100490004CEA070CC0F808C04768A7430C79C4F3BE
:1004A000001494403C4344600C79E443A4070AD010
:1004B000C4684FEA420C06FA0CF7BC438F6807FA8F
:1004C0000CF72743C7600C7904F00304022C12D107
:1004D000D40800EB840CDCF820405707FF0E09FA23
:1004E00007F824EA0804D1F8108008FA07F848EA67
:1004F0000408CCF8208004684FEA420C06FA0CF796
:10050000BC430F7907F0030707FA0CF7274307608E
:100510004C6814F4403F70D03C4C276847F4804747
:100520002760246822F0030704F480440094384CC8
:1005300007EB040CDCF8084897074FEA177809FA2C
:1005400008F7BC43334FB84202D1002724E054E0FF
:10055000314FB84201D101271EE0304FB84201D1DE
:10056000022719E02E4FB84201D1032714E02D4F86
:10057000B84201D104270FE02B4FB84201D1052723
:100580000AE02A4FB84201D1062705E0284FB842B9
:1005900001D1072700E0082707FA08F72743CCF81E
:1005A0000878DAF800405746D1F804C09C435FEA67
:1005B000CC2C00D51C433C60DBF800405F46D1F8F2
:1005C00004C09C435FEA8C2C00D51C433C60DEF8E1
:1005D00000407746D1F804C09C435FEA8C3C00D5CC
:1005E0001C433C60084F083F3C68D1F804C09C4362
:1005F0005FEACC3C00D51C433C60521C102AFFF43F
:100600002FAFBDE8F88F0000083C0140443802409D
:100610000030014000000240000402400008024097
:10062000000C02400010024000140240001802407A
:10063000001C02400069084000D001207047426958
:1006400021EA02030A4043EA0241816170470AB18C
:10065000816170470904FBE701488068704700002A
:1006600000000020024881680278114481607047D0
:10067000000000200B4810B5016841F400710160D2
:10068000016841F480610160016841F4807101609A
:10069000032000F071F8002000F006F800F024F8C4
:1006A000002010BD003C024070B50D4D04464FF4D3
:1006B0007A712878B1FBF0F00A490968B1FBF0F0D3
:1006C00000F0ECFA48B9102C07D200222146501E47
:1006D00000F032F800206C6070BD012070BD000099
:1006E000000000200C0000200B4882B0016841F49B
:1006F00080410160006800F4804000900648001FBF
:10070000016841F080510160006800F08050009065
:10071000052002B000F030B844380240002809DB60
:1007200000F01F02012191404009800000F1E0200B
:10073000C0F8001170470000F0B40E4B1B680C4667
:10074000C3F30223C3F10705042D00D90425191DA5
:10075000072901D2002300E0DB1E012606FA05F17D
:10076000491E214099409E40761E16403143F0BC00
:1007700000F091BE0CED00E0064900F007020868A9
:100780004FF6FF03184040EA0220034A1043086076
:10079000704700000CED00E00000FA052DE9F0477D
:1007A0000E46050065D0DFF81481D8F80000F7B2D6
:1007B00000F00700B04207D288F80070D8F80000B7
:1007C00000F00700B04254D128683D4C810712D593
:1007D000400703D5206840F4E050206028780007E7
:1007E00003D5206840F4604020602068A96820F0AC
:1007F000F000084320602878C0072DD03049686891
:100800000839012812D0022813D0032811D0096812
:10081000890700292DDA216821F0030101432160B5
:10082000FFF71AFF814641F2883A0EE00968890312
:10083000EFE709688901ECE7FFF70EFFA0EB09017C
:10084000514502D90320BDE8F0872068696800F0AF
:100850000C00B0EB810FEFD1D8F80010404601F04A
:100860000701B14207D90770006800F00700B042E5
:1008700001D00120E7E72878400705D52068E9681E
:1008800020F4E050084320602878000706D520684F
:10089000296920F4604040EAC100206000F018F8A7
:1008A0002168084AC1F30311515CC8400649086039
:1008B00006480068FFF7F8FE0020C4E7003C02404D
:1008C00008380240261500080C0000200400002013
:1008D000154810B5006810F00C02144813D04110F0
:1008E000042A0FD0082A0ED10F4C241F2268236837
:1008F00002F03F025B0207D52068C0F38810A0FB1E
:10090000010106E0084610BD2168C1F38811A1FB72
:1009100000010023FFF7A8FC2168C1F30141491C35
:100920004900B0FBF1F010BD083802400024F4008B
:100930002DE9F84F04006ED02078DFF84C93C00703
:10094000A9F104054AD009F104000168C1F381014D
:10095000012908D00068C0F3810002280AD1D9F823
:100960000000400206D52868800337D5606800285B
:10097000E1D033E06068B0F5803F10D0B0F5A02F33
:10098000286810D020F480302860286820F4802067
:1009900028606068A8B1FFF75FFE06460DE0286892
:1009A00040F48030F4E740F480202860F7E700BF8F
:1009B000FFF752FE801B642873D828688003F7D5A0
:1009C0000CE0FFF749FE064605E000BFFFF744FED6
:1009D000801B6428F0D828688003F7D42078DFF8DB
:1009E000AC8280074FF0000A3ED5A748001D016881
:1009F00011F00C0F08D00068C0F3810002280BD161
:100A0000D9F80000400207D42868800716D5E068AE
:100A1000012800D112E033E1E068B8B10120C8F844
:100A20000000FFF719FE064605E000BFFFF714FEC1
:100A3000801B0228C0D828688007F7D5286821695C
:100A400020F0F80040EAC10028600DE0C8F800A0DE
:100A5000FFF702FE064604E0FFF7FEFD801B0228BA
:100A60001FD828688007F7D42078000722D5864F42
:100A700087486169703771B101210160FFF7ECFDB2
:100A8000064604E0FFF7E8FD801B022809D8386815
:100A90008007F7D50EE0C0F800A0FFF7DDFD0646A1
:100AA00005E082E0FFF7D8FD801B02287DD838687A
:100AB0008007F7D42078400768D5DFF8CCB100274D
:100AC0000BF13C0BDBF80000C0000BD4DBF800108E
:100AD00041F08051CBF80010DBF80000012700F056
:100AE000805000906B4E3068C00510D4306840F4E0
:100AF00080703060FFF7B0FD009005E0FFF7ACFDBF
:100B00000099401A022850D83068C005F6D55E4ECC
:100B1000A0686C3601280FD00528306810D020F06E
:100B200001003060306820F004003060A068B8B187
:100B3000FFF792FD00900FE0306840F00100F4E70D
:100B400040F004003060F7E7FFF786FD0099411A96
:100B500041F28830814266D830688007F4D50EE0D3
:100B6000FFF77AFD009007E0FFF776FD0099411A44
:100B700041F28830814256D830688007F4D42FB1D2
:100B8000DBF8001021F08051CBF80010A069C8B349
:100B90003D49091D0968C1F3810102294AD0022893
:100BA000504607D0C8F8600000E03CE0FFF754FD75
:100BB00004463BE04746C8F86000FFF74DFD064697
:100BC00005E000BFFFF748FD801B02282BD82868EE
:100BD0008001F7D4D4E907010843A16A2E4A4908E5
:100BE00002EB0141626A41EA8211084394F82C1039
:100BF00040EA0161C9F8001001203866FFF72CFDBA
:100C0000044606E03EE000BFFFF726FD001B022879
:100C100009D828688001F7D534E000BFFFF71CFD34
:100C2000001B022802D90320BDE8F88F2868800144
:100C3000F4D427E00128F7D0D9F80000E26900F4E5
:100C4000800191421CD1226A00F03F01914217D1EC
:100C500047F6C071626A0140B1EB821F10D1A26AEF
:100C60004FF0FF3300F4403103EB5202B1EB024F7F
:100C700006D194F82C1000F07060B0EB016F01D039
:100C80000120D1E70020CFE70438024000004742AE
:100C9000800E4742007000400000FFFF10B5401E6C
:100CA000B0F1807F01D3012010BD4FF0E0246061DE
:100CB0000F21601700F0EFFB0020A06107202061EA
:100CC000002010BD7047704770B590F83C20012A95
:100CD00032D0012480F83C40022280F83D20036895
:100CE0005A689D6822F070060A6832435A60134BB6
:100CF00002689A4214D0B2F1804F11D0104B9A4240
:100D00000ED0104B9A420BD00F4B9A4208D00F4B8B
:100D10009A4205D00E4B9A4202D00E4B9A4204D111
:100D2000496825F080031943916080F83D40002117
:100D300080F83C10084670BD022070BD00000140E4
:100D40000004004000080040000C00400004014086
:100D5000004001400018004010B5040003D094F892
:100D60003D0010B107E0012010BD002084F83C00D8
:100D7000204600F01FF8022084F83D00211D206865
:100D800000F024FB012084F8460084F83E0084F83B
:100D90003F0084F8400084F8410084F8420084F861
:100DA000430084F8440084F8450084F83D000020A6
:100DB00010BD000008B5154A0168154891420ED1D2
:100DC000016841F0100101600068002200F010008D
:100DD000009001213620FFF7AFFC362010E00D4ACD
:100DE000914211D1016841F02001016000680022A8
:100DF00000F02000009001213720FFF79DFC3720F4
:100E0000BDE80840FFF78ABC08BD000000100040A4
:100E1000403802400014004090F83D10012901D0F4
:100E200001207047022180F83D100168CA6842F035
:100E30000102CA6000681149884214D0B0F1804FA5
:100E400011D00F4988420ED00E4988420BD00E496E
:100E5000884208D00D49884205D00D49884202D009
:100E60000C49884204D1816801F00701062903D0AA
:100E7000016841F00101016000207047000001405D
:100E80000004004000080040000C00400004014045
:100E90000040014000180040704770B504460068EB
:100EA00001694FF00005C943890715D4C168C943DA
:100EB000890711D4E91E016101202077206880692B
:100EC0008007204602D0FFF7E7FF04E000F098F823
:100ED000204600F0C2F8257720680169C943490718
:100EE00017D4C168C943490713D46FF004010161E5
:100EF000022020772068806910F4407F204602D0CD
:100F0000FFF7CAFF04E000F07BF8204600F0A5F8E8
:100F1000257720680169C943090716D4C168C94308
:100F2000090712D46FF008010161042020772068BE
:100F3000C0698007204602D0FFF7AEFF04E000F052
:100F40005FF8204600F089F8257720680169C943D9
:100F5000C90617D4C168C943C90613D46FF010017C
:100F60000161082020772068C06910F4407F204686
:100F700002D0FFF791FF04E000F042F8204600F0B5
:100F80006CF8257720680169C943C90708D1C16891
:100F9000C943C90704D1891E0161204600F05EF8EB
:100FA00020680169C943090609D4C168C943090613
:100FB00005D46FF0800101612046FFF783FE2068B1
:100FC0000169C943490609D4C168C943490605D422
:100FD0006FF040010161204600F054F8206801697B
:100FE000C94389060BD4C168C943890607D46FF089
:100FF000200101612046BDE87040FFF764BE70BD6E
:10100000704770B50D46040003D094F83D0010B150
:1010100007E0012070BD002084F83C00204600F06D
:101020001BF8022084F83D00211D206800F0CEF955
:101030002068016821F00801016054F8460B01683E
:1010400029430160012004F81F09E0752076E0764D
:101050002077A075002070BD70477047064A016870
:101060000648914201D1411503E0054A914202D15F
:101070000915FFF7E4BA7047001000400014024061
:10108000001400407047FEE72DE9F04786B01421B8
:101090006846FFF760F942480024016841F01001FA
:1010A0000160016801F010010591016841F0200123
:1010B0000160016801F020010591016841F08001A3
:1010C0000160016801F080010591016841F00101B2
:1010D0000160016801F001010591016841F008011A
:1010E0000160016801F008010591016841F04001CB
:1010F00001600068DFF8AC9000F040004FF4C0667B
:101100000590002231464846FFF7A1FA1C20012530
:101110008DE83100DFF890A069465046FFF792F95C
:101120000096CDE90154694648460394FFF78AF9D1
:10113000CDE90054022569461C480295FFF782F963
:1011400002AA03260C2782E8D0004FF48058CDE98C
:10115000008569464846FFF775F94FF68070CDE97E
:10116000000502AA694682E8D0005046FFF76AF9F6
:101170004CF23370CDE9000502AA694682E8D0003E
:101180000B48FFF75FF902AA694682E8D000CDE973
:1011900000850848FFF756F906B0BDE8F087000063
:1011A00030380240001402400010024000000240AB
:1011B000000C0240001802401CB500240F480094A7
:1011C0000D49019401604CF24F31C0E9011440F225
:1011D000F3118461C160FFF7BFFD08B1FFF71DF98E
:1011E0000094694605480194FFF76EFD002801D080
:1011F000FFF713F91CBD0000001000401000002094
:101200001CB50024124800941049019401604CF26E
:101210004F31C0E9011440F2CF718461C160FFF722
:101220009BFD08B1FFF7F9F808210948FFF7E9FE2F
:1012300008B1FFF7F2F80094694605480194FFF7FA
:1012400043FD002801D0FFF7E8F81CBD0014004062
:1012500058000020FEE7FEE7704770472DE9F04197
:1012600004460027FFF7F8F9264D064610212846C8
:10127000FFF7E0F938B91420FFF7D2F8102128461B
:10128000FFF7D8F928B104212846FFF7D3F918B1A0
:101290000AE00120BDE8F0811420FFF7C1F8042125
:1012A0002846FFF7C7F928B108212846FFF7C2F9F9
:1012B00010B109E00220EDE71420FFF7B1F8082192
:1012C0002846FFF7B7F938B10F4D01212846FFF73F
:1012D000B1F9012802D00AE00420DBE71420FFF76F
:1012E0009FF801212846FFF7A5F9012807D024B16E
:1012F000FFF7B2F9801BA042CCD83846CAE70320DA
:10130000C8E700000010024000000240FFF7AAB941
:1013100030B593B030216846FFF71DF814210CA8B2
:10132000FFF719F81D480025016841F08051016060
:10133000006800F0805011901948016841F4804124
:1013400001600068022400F48040119001200090A8
:10135000000401908001CDE9064008AA0420642120
:1013600082E813000B906846FFF7E2FA08B172B604
:10137000FEE70CA90F2081E831004FF4A0500F9038
:101380004FF48050109003210CA8FFF707FA0028B3
:1013900001D072B6FEE713B030BD00004038024005
:1013A000007000400248016841F47001016070471C
:1013B00088ED00E00148FFF770BD0000100000203C
:1013C0000148FFF76ABD000058000020F0B5026830
:1013D000254C264D264E274F274B4FF0804CA042E0
:1013E00009D0604507D0A84205D0B04203D0B8422A
:1013F00001D0984204D122F0700E4A6842EA0E02EF
:10140000A0421BD0604519D0A84217D0B04215D0D9
:10141000B84213D0984211D0184DA8420ED0184DA2
:10142000A8420BD0174DA84208D0174DA84205D0AE
:10143000164DA84202D0164DA84203D122F44075A1
:10144000CA682A434D6922F080022A4302608A68F2
:10145000C2620A688262A04201D0984201D1096941
:10146000016301214161F0BD000001400004004022
:1014700000080040000C0040000401400040014012
:10148000004401400048014000180040001C00409A
:1014900000200040FEE70907090E002804DB00F1E8
:1014A000E02080F80014704700F00F0000F1E02009
:1014B00080F8141D70470000FFF7DCF8FFF728FFE5
:1014C000FFF7E2FDFFF778FEFFF79AFE104C0122CE
:1014D00051022046FFF7BBF801229502294620461B
:1014E000FFF7B5F80B48FFF797FC4FF4967600200E
:1014F000FFF7B4FE0228FAD10748FFF78DFC30460B
:10150000FEF78EFF002229462046FFF7A0F8EEE7FF
:101510000014024010000020580000204FF04070DE
:10152000E1EE100A70470000000000000000010218
:1015300003040607080900005815000800000020F1
:1015400010000000C4010008681500081000002009
:10155000F0060000E001000801000000100000009B
:08156000000000000024F4006B
:040000050800018965
:00000001FF
