:020000040800F2
:1000000070060020290200083F0E0008490D000874
:100010003D0E000817040008ED0E00080000000067
:10002000000000000000000000000000430E000877
:100030001904000800000000410E0008450E0008E9
:10004000430200084302000843020008430200087C
:1000500043020008430200081B0400084302000892
:1000600021040008270400082D04000843020008AA
:10007000430200084302000843020008430200084C
:10008000430200084302000843020008430200083C
:10009000430200084302000843020008430200082C
:1000A000430200084302000843020008430200081C
:1000B000430200084302000843020008430200080C
:1000C00043020008430200084302000843020008FC
:1000D00043020008430200084302000843020008EC
:1000E00043020008430200084302000843020008DC
:1000F00043020008430200084302000843020008CC
:1001000043020008430200084302000843020008BB
:1001100043020008430200084302000843020008AB
:10012000430200084302000843020008430200089B
:10013000430200084302000843020008430200088B
:10014000430200084302000843020008430200087B
:10015000430200084302000843020008430200086B
:10016000430200084302000843020008430200085B
:100170004302000843020008430200080000000098
:10018000430200084302000800F002F800F03CF8C7
:100190000AA090E8000C82448344AAF10107DA45E2
:1001A00001D100F031F8AFF2090EBAE80F0013F0F8
:1001B000010F18BFFB1A43F0010318477C0D000024
:1001C0009C0D0000103A24BF78C878C1FAD85207B5
:1001D00024BF30C830C144BF04680C6070470000C1
:1001E0000023002400250026103A28BF78C1FBD840
:1001F000520728BF30C148BF0B6070471FB500F0E1
:100200008DFE1FBD10B510BD00F0CFF81146FFF7F1
:10021000F5FF00F07CFE00F0EDF803B4FFF7F2FF0D
:1002200003BC00F0F1F80000094880470948004786
:10023000FEE7FEE7FEE7FEE7FEE7FEE7FEE7FEE796
:10024000FEE7FEE704480549054A064B70470000F3
:10025000DD0E0008890100087000002070060020F3
:10026000700200207002002053EA020C00F0698046
:100270002DE9F04B4FF00006002B1FBFB3FA83F5BA
:1002800003FA05F424FA05F65E4012BF1643B2FAEB
:1002900082F502FA05F4C5F120051EBF22FA05FC1D
:1002A00044EA0C04203556EA044C4FEA144418BFC3
:1002B000641C4FF000084FF00009904271EB030CF2
:1002C00039D3002919BFB1FA81F701FA07F6B0FA5C
:1002D00080F700FA07F6C7F120071EBF20FA07FCD7
:1002E00046EA0C062037B6FBF4FCA7EB0507103FE7
:1002F00007F01F0BCBF120060CFA0BFB2CFA06F6CD
:1003000044BFB3460026202FA4BF5E464FF0000B2B
:100310005BEA060C08BF4FF0010B19EB0B09ABFBB6
:10032000027C48EB0608C01B06FB02CC0BFB03CC8F
:1003300071EB0C01C1E70B46024641464846BDE859
:10034000F08B13B54FF000004FF00001AFF30080C9
:10035000BDE81C4070474FF0000200B513469446BC
:100360009646203922BFA0E80C50A0E80C50B1F10D
:100370002001BFF4F7AF090728BFA0E80C5048BF21
:100380000CC05DF804EB890028BF40F8042B08BFBF
:10039000704748BF20F8022B11F0804F18BF00F8BB
:1003A000012B7047704770477047754600F028F87A
:1003B000AE4605006946534620F00700854618B052
:1003C00020B5FFF73FFFBDE820404FF000064FF09B
:1003D00000074FF000084FF0000B21F00701AC467A
:1003E000ACE8C009ACE8C009ACE8C009ACE8C00999
:1003F0008D4670470446AFF300802046FFF70DFF9F
:10040000004870471000002001491820ABBEFEE7ED
:10041000260002007047FEE77047012000F04AB84E
:10042000042000F047B8082000F044B8102000F085
:1004300041B8000070B5044600F050F90546601C54
:1004400002D004480078044400F048F9401BA04260
:10045000FAD370BD0000002070B54FF40071134C4A
:100460004D00012811D04FF47A76042817D01028B7
:1004700016D0082818D10E48016841F0010101602A
:100480003046BDE87040FFF7D5BF204600F018F9B0
:100490002946204600F014F94FF4FA70F1E7294696
:1004A000204600F00DF9EBE770BD0000001402409B
:1004B000103C014070B5054D04462868204203D029
:1004C0002046FFF7C9FF2C6070BD0000143C0140BE
:1004D0002DE9F84FDFF8BCA10022012503264FF0DB
:1004E0000F090AF1040BAAF1040E00BF0B6805FA0C
:1004F00002F42340A34270D10F7907F00307012FC4
:1005000001D0022F16D187684FEA420806FA08FC8C
:1005100027EA0C07D1F80CC00CFA08FC4CEA070CCF
:10052000C0F808C04768A7430C79C4F3001494408E
:100530003C4344600C79E443A4070AD0C4684FEA02
:10054000420C06FA0CF7BC438F6807FA0CF72743F6
:10055000C7600C7904F00304022C12D1D40800EB1C
:10056000840CDCF820405707FF0E09FA07F824EA4C
:100570000804D1F8108008FA07F848EA0408CCF813
:10058000208004684FEA420C06FA0CF7BC430F794E
:1005900007F0030707FA0CF7274307604C6814F4C9
:1005A000403F70D03C4C276847F480472760246860
:1005B00022F0030704F480440094384C07EB040C49
:1005C000DCF8084897074FEA177809FA08F7BC43A0
:1005D000334FB84202D1002724E054E0314FB842F3
:1005E00001D101271EE0304FB84201D1022719E0A6
:1005F0002E4FB84201D1032714E02D4FB84201D14C
:1006000004270FE02B4FB84201D105270AE02A4FFB
:10061000B84201D1062705E0284FB84201D107278B
:1006200000E0082707FA08F72743CCF80878DAF83B
:1006300000405746D1F804C09C435FEACC2C00D55B
:100640001C433C60DBF800405F46D1F804C09C438B
:100650005FEA8C2C00D51C433C60DEF800407746F6
:10066000D1F804C09C435FEA8C3C00D51C433C603D
:10067000084F083F3C68D1F804C09C435FEACC3C7B
:1006800000D51C433C60521C102AFFF42FAFBDE87C
:10069000F88F0000083C014044380240003001401F
:1006A000000002400004024000080240000C02402A
:1006B000001002400014024000180240001C0240DA
:1006C000426921EA02030A4043EA0241816170471C
:1006D0000AB1816170470904FBE7000001488068A6
:1006E0007047000000000020024881680278114431
:1006F00081607047000000200B4810B5016841F48C
:1007000000710160016841F480610160016841F499
:1007100080710160032000F071F8002000F006F8FD
:1007200000F024F8002010BD003C024070B50D4DD3
:1007300004464FF47A712878B1FBF0F00A49096851
:10074000B1FBF0F000F0ECFA48B9102C07D200220F
:100750002146501E00F032F800206C6070BD012070
:1007600070BD0000000000200C0000200B4882B08B
:10077000016841F480410160006800F4804000900D
:100780000648001F016841F080510160006800F0D8
:1007900080500090052002B000F030B8443802408C
:1007A000002809DB00F01F02012191404009800070
:1007B00000F1E020C0F8001170470000F0B40E4BCB
:1007C0001B680C46C3F30223C3F10705042D00D9AF
:1007D0000425191D072901D2002300E0DB1E012694
:1007E00006FA05F1491E214099409E40761E1640AA
:1007F0003143F0BC00F07BBB0CED00E0064900F09B
:10080000070208684FF6FF03184040EA0220034A37
:1008100010430860704700000CED00E00000FA058E
:100820002DE9F0470E46050065D0DFF81481D8F8B1
:100830000000F7B200F00700B04207D288F800705D
:10084000D8F8000000F00700B04254D128683D4CB1
:10085000810712D5400703D5206840F4E05020609E
:100860002878000703D5206840F4604020602068A5
:10087000A96820F0F000084320602878C0072DD038
:10088000304968680839012812D0022813D003289B
:1008900011D00968890700292DDA216821F00301A8
:1008A00001432160FFF71AFF814641F2883A0EE0CA
:1008B00009688903EFE709688901ECE7FFF70EFF94
:1008C000A0EB0901514502D90320BDE8F08720685B
:1008D000696800F00C00B0EB810FEFD1D8F8001080
:1008E000404601F00701B14207D90770006800F0E7
:1008F0000700B04201D00120E7E72878400705D57E
:100900002068E96820F4E050084320602878000758
:1009100006D52068296920F4604040EAC1002060C3
:1009200000F018F82168084AC1F30311515CC8406F
:100930000649086006480068FFF7F8FE0020C4E793
:10094000003C024008380240260F00080C0000203E
:1009500004000020154810B5006810F00C0214487F
:1009600013D04110042A0FD0082A0ED10F4C241F97
:100970002268236802F03F025B0207D52068C0F3BB
:100980008810A0FB010106E0084610BD2168C1F3F4
:100990008811A1FB00010023FFF766FC2168C1F369
:1009A0000141491C4900B0FBF1F010BD083802407C
:1009B0000024F4002DE9F84F04006ED02078DFF811
:1009C0004C93C007A9F104054AD009F1040001685D
:1009D000C1F38101012908D00068C0F38100022819
:1009E0000AD1D9F80000400206D52868800337D51F
:1009F00060680028E1D033E06068B0F5803F10D037
:100A0000B0F5A02F286810D020F480302860286826
:100A100020F4802028606068A8B1FFF75FFE0646DA
:100A20000DE0286840F48030F4E740F4802028602E
:100A3000F7E700BFFFF752FE801B642873D82868D1
:100A40008003F7D50CE0FFF749FE064605E000BF3E
:100A5000FFF744FE801B6428F0D828688003F7D491
:100A60002078DFF8AC8280074FF0000A3ED5A74817
:100A7000001D016811F00C0F08D00068C0F3810060
:100A800002280BD1D9F80000400207D4286880075B
:100A900016D5E068012800D112E033E1E068B8B172
:100AA0000120C8F80000FFF719FE064605E000BF68
:100AB000FFF714FE801B0228C0D828688007F7D5EE
:100AC0002868216920F0F80040EAC10028600DE0A4
:100AD000C8F800A0FFF702FE064604E0FFF7FEFD9F
:100AE000801B02281FD828688007F7D420780007C9
:100AF00022D5864F87486169703771B10121016045
:100B0000FFF7ECFD064604E0FFF7E8FD801B022836
:100B100009D838688007F7D50EE0C0F800A0FFF7C5
:100B2000DDFD064605E082E0FFF7D8FD801B0228C8
:100B30007DD838688007F7D42078400768D5DFF87B
:100B4000CCB100270BF13C0BDBF80000C0000BD44C
:100B5000DBF8001041F08051CBF80010DBF800000A
:100B6000012700F0805000906B4E3068C00510D413
:100B7000306840F480703060FFF7B0FD009005E011
:100B8000FFF7ACFD0099401A022850D83068C00524
:100B9000F6D55E4EA0686C3601280FD00528306867
:100BA00010D020F001003060306820F00400306088
:100BB000A068B8B1FFF792FD00900FE0306840F0F8
:100BC0000100F4E740F004003060F7E7FFF786FD2E
:100BD0000099411A41F28830814266D83068800716
:100BE000F4D50EE0FFF77AFD009007E0FFF776FD01
:100BF0000099411A41F28830814256D83068800706
:100C0000F4D42FB1DBF8001021F08051CBF80010A4
:100C1000A069C8B33D49091D0968C1F381010229D2
:100C20004AD00228504607D0C8F8600000E03CE0F7
:100C3000FFF754FD04463BE04746C8F86000FFF765
:100C40004DFD064605E000BFFFF748FD801B02286A
:100C50002BD828688001F7D4D4E907010843A16A9A
:100C60002E4A490802EB0141626A41EA82110843B7
:100C700094F82C1040EA0161C9F800100120386690
:100C8000FFF72CFD044606E03EE000BFFFF726FD1F
:100C9000001B022809D828688001F7D534E000BF7E
:100CA000FFF71CFD001B022802D90320BDE8F88FC6
:100CB00028688001F4D427E00128F7D0D9F8000093
:100CC000E26900F4800191421CD1226A00F03F01E8
:100CD000914217D147F6C071626A0140B1EB821FA1
:100CE00010D1A26A4FF0FF3300F4403103EB5202FF
:100CF000B1EB024F06D194F82C1000F07060B0EB0D
:100D0000016F01D00120D1E70020CFE70438024075
:100D100000004742800E4742007000400000FFFF85
:100D200010B5401EB0F1807F01D3012010BD4FF0FF
:100D3000E02460610F21601700F0D9F80020A06165
:100D400007202061002010BDFEE700002DE9F041E2
:100D500086B014216846FFF7FEFA34480025016882
:100D600041F010010160016801F010010591016876
:100D700041F020010160016801F020010591016846
:100D800041F080010160016801F080010591016876
:100D900041F0010101600068DFF8948000F001007B
:100DA0004FF4C0670590002239464046FFF790FC9B
:100DB0001C204FF48816CDE90006012469460294F0
:100DC0001C48FFF785FB0097CDE901456946404681
:100DD0000395FFF77DFB02200094CDE90160694691
:100DE0001548FFF775FB002201210620FFF7E6FCFE
:100DF0000620FFF7D5FC002202210820FFF7DEFCC9
:100E00000820FFF7CDFC002201210920FFF7D6FCC6
:100E10000920FFF7C5FC002201210A20FFF7CEFCC4
:100E20000A20FFF7BDFC06B0BDE8F0813038024073
:100E3000001402400010024000000240FEE7FEE7FE
:100E400070477047FFF750BC30B593B0302168460B
:100E5000FFF781FA14210CA8FFF77DFA1D48002541
:100E6000016841F080510160006800F080501190ED
:100E70001948016841F4804101600068022400F4CF
:100E80008040119001200090000401908001CDE984
:100E9000064008AA0420A82182E813000B906846A7
:100EA000FFF788FD08B172B6FEE70CA90F2081E8B4
:100EB00031004FF4A0500F904FF480501090052156
:100EC0000CA8FFF7ADFC002801D072B6FEE713B006
:100ED00030BD000040380240007000400248016808
:100EE00041F470010160704788ED00E0FEE70907FA
:100EF000090E002804DB00F1E02080F800147047A0
:100F000000F00F0000F1E02080F8141D7047FFF79B
:100F1000F3FBFFF799FFFFF719FFFEE74FF0407073
:100F2000E1EE100A7047000000000000000001021E
:100F30000304060708090000580F000800000020FD
:100F400010000000C4010008680F00081000002015
:100F500060060000E0010008010000001000000031
:080F6000000000000024F40071
:040000050800018965
:00000001FF
